{
  "contractName": "NFTMarketPlace",
  "abi": [
    {
      "inputs": [],
      "stateMutability": "nonpayable",
      "type": "constructor"
    },
    {
      "anonymous": false,
      "inputs": [
        {
          "indexed": true,
          "internalType": "address",
          "name": "nftContract",
          "type": "address"
        },
        {
          "indexed": true,
          "internalType": "uint256",
          "name": "id",
          "type": "uint256"
        },
        {
          "indexed": false,
          "internalType": "uint256",
          "name": "tokenId",
          "type": "uint256"
        },
        {
          "indexed": false,
          "internalType": "address",
          "name": "owner",
          "type": "address"
        },
        {
          "indexed": false,
          "internalType": "address",
          "name": "seller",
          "type": "address"
        },
        {
          "indexed": false,
          "internalType": "uint256",
          "name": "price",
          "type": "uint256"
        },
        {
          "indexed": false,
          "internalType": "bool",
          "name": "isSold",
          "type": "bool"
        }
      ],
      "name": "NftMarketItemCreated",
      "type": "event"
    },
    {
      "inputs": [],
      "name": "getMarketFees",
      "outputs": [
        {
          "internalType": "uint256",
          "name": "",
          "type": "uint256"
        }
      ],
      "stateMutability": "view",
      "type": "function",
      "constant": true
    },
    {
      "inputs": [
        {
          "internalType": "address",
          "name": "nftContract",
          "type": "address"
        },
        {
          "internalType": "uint256",
          "name": "tokenId",
          "type": "uint256"
        },
        {
          "internalType": "uint256",
          "name": "price",
          "type": "uint256"
        }
      ],
      "name": "createItemForSale",
      "outputs": [],
      "stateMutability": "payable",
      "type": "function",
      "payable": true
    },
    {
      "inputs": [
        {
          "internalType": "address",
          "name": "nftContract",
          "type": "address"
        },
        {
          "internalType": "uint256",
          "name": "nftItemId",
          "type": "uint256"
        }
      ],
      "name": "createMarketforSale",
      "outputs": [],
      "stateMutability": "payable",
      "type": "function",
      "payable": true
    },
    {
      "inputs": [],
      "name": "getMyCreations",
      "outputs": [
        {
          "components": [
            {
              "internalType": "address",
              "name": "nftContract",
              "type": "address"
            },
            {
              "internalType": "uint256",
              "name": "id",
              "type": "uint256"
            },
            {
              "internalType": "uint256",
              "name": "tokenId",
              "type": "uint256"
            },
            {
              "internalType": "address payable",
              "name": "owner",
              "type": "address"
            },
            {
              "internalType": "address payable",
              "name": "seller",
              "type": "address"
            },
            {
              "internalType": "uint256",
              "name": "price",
              "type": "uint256"
            },
            {
              "internalType": "bool",
              "name": "isSold",
              "type": "bool"
            }
          ],
          "internalType": "struct NFTMarketPlace.NftMarketItem[]",
          "name": "",
          "type": "tuple[]"
        }
      ],
      "stateMutability": "view",
      "type": "function",
      "constant": true
    },
    {
      "inputs": [],
      "name": "getMyPurchasedNFTs",
      "outputs": [
        {
          "components": [
            {
              "internalType": "address",
              "name": "nftContract",
              "type": "address"
            },
            {
              "internalType": "uint256",
              "name": "id",
              "type": "uint256"
            },
            {
              "internalType": "uint256",
              "name": "tokenId",
              "type": "uint256"
            },
            {
              "internalType": "address payable",
              "name": "owner",
              "type": "address"
            },
            {
              "internalType": "address payable",
              "name": "seller",
              "type": "address"
            },
            {
              "internalType": "uint256",
              "name": "price",
              "type": "uint256"
            },
            {
              "internalType": "bool",
              "name": "isSold",
              "type": "bool"
            }
          ],
          "internalType": "struct NFTMarketPlace.NftMarketItem[]",
          "name": "",
          "type": "tuple[]"
        }
      ],
      "stateMutability": "view",
      "type": "function",
      "constant": true
    },
    {
      "inputs": [],
      "name": "getAllUnsoldItems",
      "outputs": [
        {
          "components": [
            {
              "internalType": "address",
              "name": "nftContract",
              "type": "address"
            },
            {
              "internalType": "uint256",
              "name": "id",
              "type": "uint256"
            },
            {
              "internalType": "uint256",
              "name": "tokenId",
              "type": "uint256"
            },
            {
              "internalType": "address payable",
              "name": "owner",
              "type": "address"
            },
            {
              "internalType": "address payable",
              "name": "seller",
              "type": "address"
            },
            {
              "internalType": "uint256",
              "name": "price",
              "type": "uint256"
            },
            {
              "internalType": "bool",
              "name": "isSold",
              "type": "bool"
            }
          ],
          "internalType": "struct NFTMarketPlace.NftMarketItem[]",
          "name": "",
          "type": "tuple[]"
        }
      ],
      "stateMutability": "view",
      "type": "function",
      "constant": true
    },
    {
      "inputs": [],
      "name": "getAllSoldItems",
      "outputs": [
        {
          "components": [
            {
              "internalType": "address",
              "name": "nftContract",
              "type": "address"
            },
            {
              "internalType": "uint256",
              "name": "id",
              "type": "uint256"
            },
            {
              "internalType": "uint256",
              "name": "tokenId",
              "type": "uint256"
            },
            {
              "internalType": "address payable",
              "name": "owner",
              "type": "address"
            },
            {
              "internalType": "address payable",
              "name": "seller",
              "type": "address"
            },
            {
              "internalType": "uint256",
              "name": "price",
              "type": "uint256"
            },
            {
              "internalType": "bool",
              "name": "isSold",
              "type": "bool"
            }
          ],
          "internalType": "struct NFTMarketPlace.NftMarketItem[]",
          "name": "",
          "type": "tuple[]"
        }
      ],
      "stateMutability": "view",
      "type": "function",
      "constant": true
    }
  ],
  "bytecode": "0x6080604052662386f26fc1000060015534801561001b57600080fd5b50600160008190555033600260006101000a81548173ffffffffffffffffffffffffffffffffffffffff021916908373ffffffffffffffffffffffffffffffffffffffff160217905550611d2b806100746000396000f3fe6080604052600436106100705760003560e01c8063ba52cc371161004e578063ba52cc37146100e7578063c7a5bc4e14610112578063c9f42d691461012e578063d118b5391461015957610070565b806325135cbf14610075578063454b1cc3146100a05780637377bc20146100bc575b600080fd5b34801561008157600080fd5b5061008a610184565b60405161009791906116f2565b60405180910390f35b6100ba60048036038101906100b59190611771565b61044e565b005b3480156100c857600080fd5b506100d1610707565b6040516100de91906116f2565b60405180910390f35b3480156100f357600080fd5b506100fc610a55565b60405161010991906117c0565b60405180910390f35b61012c600480360381019061012791906117db565b610a5f565b005b34801561013a57600080fd5b50610143610e77565b60405161015091906116f2565b60405180910390f35b34801561016557600080fd5b5061016e6111c5565b60405161017b91906116f2565b60405180910390f35b60606000610192600361147a565b905060006101a0600461147a565b6101aa600361147a565b6101b4919061185d565b90506000808267ffffffffffffffff8111156101d3576101d2611891565b5b60405190808252806020026020018201604052801561020c57816020015b6101f961149e565b8152602001906001900390816101f15790505b50905060005b8481101561044357600073ffffffffffffffffffffffffffffffffffffffff166005600060018461024391906118c0565b815260200190815260200160002060030160009054906101000a900473ffffffffffffffffffffffffffffffffffffffff1673ffffffffffffffffffffffffffffffffffffffff1614156104305760006001826102a091906118c0565b90506000600560008381526020019081526020016000209050806040518060e00160405290816000820160009054906101000a900473ffffffffffffffffffffffffffffffffffffffff1673ffffffffffffffffffffffffffffffffffffffff1673ffffffffffffffffffffffffffffffffffffffff16815260200160018201548152602001600282015481526020016003820160009054906101000a900473ffffffffffffffffffffffffffffffffffffffff1673ffffffffffffffffffffffffffffffffffffffff1673ffffffffffffffffffffffffffffffffffffffff1681526020016004820160009054906101000a900473ffffffffffffffffffffffffffffffffffffffff1673ffffffffffffffffffffffffffffffffffffffff1673ffffffffffffffffffffffffffffffffffffffff168152602001600582015481526020016006820160009054906101000a900460ff16151515158152505084868151811061041357610412611916565b5b602002602001018190525060018561042b91906118c0565b945050505b808061043b90611945565b915050610212565b508094505050505090565b60026000541415610494576040517f08c379a000000000000000000000000000000000000000000000000000000000815260040161048b906119eb565b60405180910390fd5b6002600081905550600060056000838152602001908152602001600020600501549050600060056000848152602001908152602001600020600201549050813414610514576040517f08c379a000000000000000000000000000000000000000000000000000000000815260040161050b90611a7d565b60405180910390fd5b6005600084815260200190815260200160002060040160009054906101000a900473ffffffffffffffffffffffffffffffffffffffff1673ffffffffffffffffffffffffffffffffffffffff166108fc349081150290604051600060405180830381858888f19350505050158015610590573d6000803e3d6000fd5b508373ffffffffffffffffffffffffffffffffffffffff166323b872dd3033846040518463ffffffff1660e01b81526004016105ce93929190611aac565b600060405180830381600087803b1580156105e857600080fd5b505af11580156105fc573d6000803e3d6000fd5b50505050336005600085815260200190815260200160002060030160006101000a81548173ffffffffffffffffffffffffffffffffffffffff021916908373ffffffffffffffffffffffffffffffffffffffff16021790555060016005600085815260200190815260200160002060060160006101000a81548160ff021916908315150217905550600260009054906101000a900473ffffffffffffffffffffffffffffffffffffffff1673ffffffffffffffffffffffffffffffffffffffff166108fc6001549081150290604051600060405180830381858888f193505050501580156106ee573d6000803e3d6000fd5b506106f96004611488565b505060016000819055505050565b60606000610715600361147a565b905060008060005b838110156107be573373ffffffffffffffffffffffffffffffffffffffff166005600060018461074d91906118c0565b815260200190815260200160002060040160009054906101000a900473ffffffffffffffffffffffffffffffffffffffff1673ffffffffffffffffffffffffffffffffffffffff1614156107ab576001836107a891906118c0565b92505b80806107b690611945565b91505061071d565b5060008267ffffffffffffffff8111156107db576107da611891565b5b60405190808252806020026020018201604052801561081457816020015b61080161149e565b8152602001906001900390816107f95790505b50905060005b84811015610a4a573373ffffffffffffffffffffffffffffffffffffffff166005600060018461084a91906118c0565b815260200190815260200160002060040160009054906101000a900473ffffffffffffffffffffffffffffffffffffffff1673ffffffffffffffffffffffffffffffffffffffff161415610a375760006001826108a791906118c0565b90506000600560008381526020019081526020016000209050806040518060e00160405290816000820160009054906101000a900473ffffffffffffffffffffffffffffffffffffffff1673ffffffffffffffffffffffffffffffffffffffff1673ffffffffffffffffffffffffffffffffffffffff16815260200160018201548152602001600282015481526020016003820160009054906101000a900473ffffffffffffffffffffffffffffffffffffffff1673ffffffffffffffffffffffffffffffffffffffff1673ffffffffffffffffffffffffffffffffffffffff1681526020016004820160009054906101000a900473ffffffffffffffffffffffffffffffffffffffff1673ffffffffffffffffffffffffffffffffffffffff1673ffffffffffffffffffffffffffffffffffffffff168152602001600582015481526020016006820160009054906101000a900460ff161515151581525050848681518110610a1a57610a19611916565b5b6020026020010181905250600185610a3291906118c0565b945050505b8080610a4290611945565b91505061081a565b508094505050505090565b6000600154905090565b60026000541415610aa5576040517f08c379a0000000000000000000000000000000000000000000000000000000008152600401610a9c906119eb565b60405180910390fd5b600260008190555060008111610af0576040517f08c379a0000000000000000000000000000000000000000000000000000000008152600401610ae790611b2f565b60405180910390fd5b60008211610b33576040517f08c379a0000000000000000000000000000000000000000000000000000000008152600401610b2a90611b9b565b60405180910390fd5b6001543414610b77576040517f08c379a0000000000000000000000000000000000000000000000000000000008152600401610b6e90611c07565b60405180910390fd5b600073ffffffffffffffffffffffffffffffffffffffff168373ffffffffffffffffffffffffffffffffffffffff161415610be7576040517f08c379a0000000000000000000000000000000000000000000000000000000008152600401610bde90611c73565b60405180910390fd5b610bf16003611488565b6000610bfd600361147a565b90506040518060e001604052808573ffffffffffffffffffffffffffffffffffffffff168152602001828152602001848152602001600073ffffffffffffffffffffffffffffffffffffffff1681526020013373ffffffffffffffffffffffffffffffffffffffff168152602001838152602001600015158152506005600083815260200190815260200160002060008201518160000160006101000a81548173ffffffffffffffffffffffffffffffffffffffff021916908373ffffffffffffffffffffffffffffffffffffffff160217905550602082015181600101556040820151816002015560608201518160030160006101000a81548173ffffffffffffffffffffffffffffffffffffffff021916908373ffffffffffffffffffffffffffffffffffffffff16021790555060808201518160040160006101000a81548173ffffffffffffffffffffffffffffffffffffffff021916908373ffffffffffffffffffffffffffffffffffffffff16021790555060a0820151816005015560c08201518160060160006101000a81548160ff0219169083151502179055509050508373ffffffffffffffffffffffffffffffffffffffff166323b872dd3330866040518463ffffffff1660e01b8152600401610dde93929190611aac565b600060405180830381600087803b158015610df857600080fd5b505af1158015610e0c573d6000803e3d6000fd5b50505050808473ffffffffffffffffffffffffffffffffffffffff167f3bf791742496a21f9ebdd8ae49c93867b0a1892618aace0fbf6b455c2ebc712a85600033876000604051610e61959493929190611ca2565b60405180910390a3506001600081905550505050565b60606000610e85600361147a565b905060008060005b83811015610f2e573373ffffffffffffffffffffffffffffffffffffffff1660056000600184610ebd91906118c0565b815260200190815260200160002060030160009054906101000a900473ffffffffffffffffffffffffffffffffffffffff1673ffffffffffffffffffffffffffffffffffffffff161415610f1b57600183610f1891906118c0565b92505b8080610f2690611945565b915050610e8d565b5060008267ffffffffffffffff811115610f4b57610f4a611891565b5b604051908082528060200260200182016040528015610f8457816020015b610f7161149e565b815260200190600190039081610f695790505b50905060005b848110156111ba573373ffffffffffffffffffffffffffffffffffffffff1660056000600184610fba91906118c0565b815260200190815260200160002060030160009054906101000a900473ffffffffffffffffffffffffffffffffffffffff1673ffffffffffffffffffffffffffffffffffffffff1614156111a757600060018261101791906118c0565b90506000600560008381526020019081526020016000209050806040518060e00160405290816000820160009054906101000a900473ffffffffffffffffffffffffffffffffffffffff1673ffffffffffffffffffffffffffffffffffffffff1673ffffffffffffffffffffffffffffffffffffffff16815260200160018201548152602001600282015481526020016003820160009054906101000a900473ffffffffffffffffffffffffffffffffffffffff1673ffffffffffffffffffffffffffffffffffffffff1673ffffffffffffffffffffffffffffffffffffffff1681526020016004820160009054906101000a900473ffffffffffffffffffffffffffffffffffffffff1673ffffffffffffffffffffffffffffffffffffffff1673ffffffffffffffffffffffffffffffffffffffff168152602001600582015481526020016006820160009054906101000a900460ff16151515158152505084868151811061118a57611189611916565b5b60200260200101819052506001856111a291906118c0565b945050505b80806111b290611945565b915050610f8a565b508094505050505090565b606060006111d3600461147a565b905060006111e1600461147a565b90506000808267ffffffffffffffff811115611200576111ff611891565b5b60405190808252806020026020018201604052801561123957816020015b61122661149e565b81526020019060019003908161121e5790505b50905060005b8481101561146f57600073ffffffffffffffffffffffffffffffffffffffff166005600060018461127091906118c0565b815260200190815260200160002060030160009054906101000a900473ffffffffffffffffffffffffffffffffffffffff1673ffffffffffffffffffffffffffffffffffffffff161461145c5760006001826112cc91906118c0565b90506000600560008381526020019081526020016000209050806040518060e00160405290816000820160009054906101000a900473ffffffffffffffffffffffffffffffffffffffff1673ffffffffffffffffffffffffffffffffffffffff1673ffffffffffffffffffffffffffffffffffffffff16815260200160018201548152602001600282015481526020016003820160009054906101000a900473ffffffffffffffffffffffffffffffffffffffff1673ffffffffffffffffffffffffffffffffffffffff1673ffffffffffffffffffffffffffffffffffffffff1681526020016004820160009054906101000a900473ffffffffffffffffffffffffffffffffffffffff1673ffffffffffffffffffffffffffffffffffffffff1673ffffffffffffffffffffffffffffffffffffffff168152602001600582015481526020016006820160009054906101000a900460ff16151515158152505084868151811061143f5761143e611916565b5b602002602001018190525060018561145791906118c0565b945050505b808061146790611945565b91505061123f565b508094505050505090565b600081600001549050919050565b6001816000016000828254019250508190555050565b6040518060e00160405280600073ffffffffffffffffffffffffffffffffffffffff1681526020016000815260200160008152602001600073ffffffffffffffffffffffffffffffffffffffff168152602001600073ffffffffffffffffffffffffffffffffffffffff168152602001600081526020016000151581525090565b600081519050919050565b600082825260208201905092915050565b6000819050602082019050919050565b600073ffffffffffffffffffffffffffffffffffffffff82169050919050565b60006115768261154b565b9050919050565b6115868161156b565b82525050565b6000819050919050565b61159f8161158c565b82525050565b60006115b08261154b565b9050919050565b6115c0816115a5565b82525050565b60008115159050919050565b6115db816115c6565b82525050565b60e0820160008201516115f7600085018261157d565b50602082015161160a6020850182611596565b50604082015161161d6040850182611596565b50606082015161163060608501826115b7565b50608082015161164360808501826115b7565b5060a082015161165660a0850182611596565b5060c082015161166960c08501826115d2565b50505050565b600061167b83836115e1565b60e08301905092915050565b6000602082019050919050565b600061169f8261151f565b6116a9818561152a565b93506116b48361153b565b8060005b838110156116e55781516116cc888261166f565b97506116d783611687565b9250506001810190506116b8565b5085935050505092915050565b6000602082019050818103600083015261170c8184611694565b905092915050565b600080fd5b6117228161156b565b811461172d57600080fd5b50565b60008135905061173f81611719565b92915050565b61174e8161158c565b811461175957600080fd5b50565b60008135905061176b81611745565b92915050565b6000806040838503121561178857611787611714565b5b600061179685828601611730565b92505060206117a78582860161175c565b9150509250929050565b6117ba8161158c565b82525050565b60006020820190506117d560008301846117b1565b92915050565b6000806000606084860312156117f4576117f3611714565b5b600061180286828701611730565b93505060206118138682870161175c565b92505060406118248682870161175c565b9150509250925092565b7f4e487b7100000000000000000000000000000000000000000000000000000000600052601160045260246000fd5b60006118688261158c565b91506118738361158c565b9250828210156118865761188561182e565b5b828203905092915050565b7f4e487b7100000000000000000000000000000000000000000000000000000000600052604160045260246000fd5b60006118cb8261158c565b91506118d68361158c565b9250827fffffffffffffffffffffffffffffffffffffffffffffffffffffffffffffffff0382111561190b5761190a61182e565b5b828201905092915050565b7f4e487b7100000000000000000000000000000000000000000000000000000000600052603260045260246000fd5b60006119508261158c565b91507fffffffffffffffffffffffffffffffffffffffffffffffffffffffffffffffff8214156119835761198261182e565b5b600182019050919050565b600082825260208201905092915050565b7f5265656e7472616e637947756172643a207265656e7472616e742063616c6c00600082015250565b60006119d5601f8361198e565b91506119e08261199f565b602082019050919050565b60006020820190508181036000830152611a04816119c8565b9050919050565b7f50726963652076616c75652073686f756c6420626520657175616c20746f206960008201527f74656d2070726963650000000000000000000000000000000000000000000000602082015250565b6000611a6760298361198e565b9150611a7282611a0b565b604082019050919050565b60006020820190508181036000830152611a9681611a5a565b9050919050565b611aa68161156b565b82525050565b6000606082019050611ac16000830186611a9d565b611ace6020830185611a9d565b611adb60408301846117b1565b949350505050565b7f50726963652073686f756c64206265206d6f7265207468616e20310000000000600082015250565b6000611b19601b8361198e565b9150611b2482611ae3565b602082019050919050565b60006020820190508181036000830152611b4881611b0c565b9050919050565b7f546f6b656e2049442073686f756c64206265206d6f7265207468616e20310000600082015250565b6000611b85601e8361198e565b9150611b9082611b4f565b602082019050919050565b60006020820190508181036000830152611bb481611b78565b9050919050565b7f546865206d61726b6574206665657320697320302e3031302045746865720000600082015250565b6000611bf1601e8361198e565b9150611bfc82611bbb565b602082019050919050565b60006020820190508181036000830152611c2081611be4565b9050919050565b7f416464726573732073686f756c64206e6f7420626520657175616c2030783000600082015250565b6000611c5d601f8361198e565b9150611c6882611c27565b602082019050919050565b60006020820190508181036000830152611c8c81611c50565b9050919050565b611c9c816115c6565b82525050565b600060a082019050611cb760008301886117b1565b611cc46020830187611a9d565b611cd16040830186611a9d565b611cde60608301856117b1565b611ceb6080830184611c93565b969550505050505056fea264697066735822122032c55ff18e0934d4987fea5105e9943ee8b4929f36f460e417b9d8d885e579e764736f6c634300080b0033",
  "immutableReferences": {},
  "source": "// SPDX-License-Identifier: MIT\r\npragma solidity >=0.4.22 <0.9.0;\r\n\r\nimport \"@openzeppelin/contracts/utils/Counters.sol\";\r\nimport \"@openzeppelin/contracts/token/ERC721/ERC721.sol\";\r\nimport \"@openzeppelin/contracts/security/ReentrancyGuard.sol\";\r\n\r\n\r\ncontract NFTMarketPlace is ReentrancyGuard{\r\n    uint256 private marketFees = 0.010 ether;\r\n    address payable owner;\r\n\r\n    using Counters for Counters.Counter;\r\n    Counters.Counter private itemId;\r\n    Counters.Counter private itemSold;\r\n\r\n    constructor(){\r\n        owner = payable(msg.sender);\r\n    }\r\n\r\n    struct NftMarketItem{\r\n        address nftContract;\r\n        uint256 id;\r\n        uint256 tokenId;\r\n         address payable owner;\r\n        address payable seller;\r\n        uint256 price;\r\n        bool isSold;\r\n    }\r\n\r\n    event NftMarketItemCreated(\r\n        address indexed nftContract,\r\n        uint256 indexed id,\r\n        uint256 tokenId,\r\n        address owner,\r\n        address seller,\r\n        uint256 price,\r\n        bool isSold\r\n    );\r\n\r\n    function getMarketFees()public view returns(uint256){\r\n        return marketFees;\r\n    }\r\n    ///////////////////////////\r\n    mapping(uint256=>NftMarketItem) private idForMarketItem;\r\n    ///////////////////////////\r\n\r\n    function createItemForSale(address nftContract, uint256 tokenId,uint256 price )public payable nonReentrant{\r\n        require(price > 0, \"Price should be more than 1\");\r\n        require(tokenId > 0, \"Token ID should be more than 1\");\r\n        require(msg.value == marketFees, \"The market fees is 0.010 Ether\");\r\n        require(nftContract != address(0), \"Address should not be equal 0x0\");\r\n        itemId.increment();\r\n        uint256 id = itemId.current();\r\n\r\n        idForMarketItem[id] = NftMarketItem(\r\n            nftContract,\r\n            id,\r\n            tokenId,\r\n            payable (address(0)),\r\n            payable (msg.sender),\r\n            price,\r\n            false\r\n        );\r\n\r\n        IERC721(nftContract).transferFrom(msg.sender, address(this), tokenId);\r\n\r\n        emit NftMarketItemCreated(nftContract, id, tokenId, address(0), msg.sender, price, false);\r\n    }\r\n    //Create Market\r\n\r\n    function createMarketforSale(address nftContract,uint256 nftItemId )public payable nonReentrant{\r\n        uint256 price = idForMarketItem[nftItemId].price;\r\n        uint256 tokenId = idForMarketItem[nftItemId].tokenId;\r\n\r\n        require(msg.value == price, \"Price value should be equal to item price\");\r\n        idForMarketItem[nftItemId].seller.transfer(msg.value);\r\n        IERC721(nftContract).transferFrom(address(this), msg.sender, tokenId); //buy\r\n        idForMarketItem[nftItemId].owner = payable(msg.sender);\r\n        idForMarketItem[nftItemId].isSold = true;\r\n        payable(owner).transfer(marketFees);\r\n        itemSold.increment();\r\n\r\n    }\r\n    //My Items => sold, on sale, buy\r\n      function getMyCreations() public view returns(NftMarketItem[] memory){\r\n        uint256 totalItemsCount = itemId.current(); \r\n        uint myItemsCount= 0;\r\n        uint myCurrenIndex = 0;\r\n\r\n        for (uint i = 0; i < totalItemsCount; i++) {\r\n            if(idForMarketItem[i+1].seller == msg.sender){\r\n                myItemsCount +=1;\r\n            }\r\n        }\r\n        NftMarketItem [] memory nftItems = new  NftMarketItem[](myItemsCount);\r\n        for (uint i = 0; i < totalItemsCount; i++) {\r\n            if(idForMarketItem[i+1].seller==msg.sender){\r\n              uint currentId = i+1;\r\n              NftMarketItem  storage currentItems = idForMarketItem[currentId];  \r\n              nftItems[myCurrenIndex] = currentItems;\r\n              myCurrenIndex += 1;\r\n            }\r\n        }\r\n\r\n        return nftItems;\r\n    }\r\n    //Create my purchased NFT items\r\n\r\n        function getMyPurchasedNFTs() public view returns(NftMarketItem[] memory){\r\n        uint256 totalItemsCount = itemId.current(); \r\n        uint myItemsCount= 0;\r\n        uint myCurrenIndex = 0;\r\n\r\n        for (uint i = 0; i < totalItemsCount; i++) {\r\n            if(idForMarketItem[i+1].owner == msg.sender){\r\n                myItemsCount +=1;\r\n            }\r\n        }\r\n        NftMarketItem [] memory nftItems = new  NftMarketItem[](myItemsCount);\r\n        for (uint i = 0; i < totalItemsCount; i++) {\r\n            if(idForMarketItem[i+1].owner==msg.sender){\r\n              uint currentId = i+1;\r\n              NftMarketItem  storage currentItems = idForMarketItem[currentId];  \r\n              nftItems[myCurrenIndex] = currentItems;\r\n              myCurrenIndex += 1;\r\n            }\r\n        }\r\n\r\n        return nftItems;\r\n    }\r\n    //Fetch all unsold items\r\n\r\n    function getAllUnsoldItems()public view returns(NftMarketItem[] memory){\r\n\r\n        uint256 totalItemsCount = itemId.current(); \r\n        uint myItemsCount= itemId.current() - itemSold.current();\r\n        uint myCurrenIndex = 0;\r\n\r\n          NftMarketItem [] memory nftItems = new  NftMarketItem[](myItemsCount);\r\n        for (uint i = 0; i < totalItemsCount; i++) {\r\n            if(idForMarketItem[i+1].owner==address(0)){\r\n              uint currentId = i+1;\r\n              NftMarketItem  storage currentItems = idForMarketItem[currentId];  \r\n              nftItems[myCurrenIndex] = currentItems;\r\n              myCurrenIndex += 1;\r\n            }\r\n        }\r\n\r\n        return nftItems;\r\n\r\n    }\r\n\r\n     function getAllSoldItems()public view returns(NftMarketItem[] memory){\r\n\r\n        uint256 totalItemsCount = itemSold.current(); \r\n        uint myItemsCount=  itemSold.current();\r\n        uint myCurrenIndex = 0;\r\n\r\n          NftMarketItem [] memory nftItems = new  NftMarketItem[](myItemsCount);\r\n        for (uint i = 0; i < totalItemsCount; i++) {\r\n            if(idForMarketItem[i+1].owner!=address(0)){\r\n              uint currentId = i+1;\r\n              NftMarketItem  storage currentItems = idForMarketItem[currentId];  \r\n              nftItems[myCurrenIndex] = currentItems;\r\n              myCurrenIndex += 1;\r\n            }\r\n        }\r\n\r\n        return nftItems;\r\n\r\n    }\r\n\r\n    \r\n\r\n    \r\n}",
  "sourcePath": "F:\\kurdsea-nft-marketplace\\contracts\\NFTMarketPlace.sol",
  "compiler": {
    "name": "solc",
    "version": "0.8.11+commit.d7f03943.Emscripten.clang"
  },
  "schemaVersion": "3.4.4",
  "updatedAt": "2022-02-06T18:54:40.971Z",
  "networkType": "ethereum",
  "devdoc": {
    "kind": "dev",
    "methods": {},
    "version": 1
  },
  "userdoc": {
    "kind": "user",
    "methods": {},
    "version": 1
  }
}